{
  "_format": "hh3-artifact-1",
  "contractName": "AccessPolicyManager",
  "sourceName": "contracts/AccessPolicyManager.sol",
  "abi": [
    {
      "inputs": [
        {
          "internalType": "address",
          "name": "subjectRegistry_",
          "type": "address"
        },
        {
          "internalType": "address",
          "name": "evidenceRegistry_",
          "type": "address"
        }
      ],
      "stateMutability": "nonpayable",
      "type": "constructor"
    },
    {
      "anonymous": false,
      "inputs": [
        {
          "indexed": true,
          "internalType": "address",
          "name": "subject",
          "type": "address"
        },
        {
          "indexed": true,
          "internalType": "uint256",
          "name": "resourceId",
          "type": "uint256"
        },
        {
          "indexed": false,
          "internalType": "enum Action",
          "name": "action",
          "type": "uint8"
        },
        {
          "indexed": false,
          "internalType": "bool",
          "name": "allowed",
          "type": "bool"
        }
      ],
      "name": "AccessChecked",
      "type": "event"
    },
    {
      "anonymous": false,
      "inputs": [
        {
          "indexed": true,
          "internalType": "address",
          "name": "oldAdmin",
          "type": "address"
        },
        {
          "indexed": true,
          "internalType": "address",
          "name": "newAdmin",
          "type": "address"
        }
      ],
      "name": "AdminChanged",
      "type": "event"
    },
    {
      "anonymous": false,
      "inputs": [
        {
          "indexed": true,
          "internalType": "uint256",
          "name": "policyId",
          "type": "uint256"
        },
        {
          "indexed": false,
          "internalType": "enum Role",
          "name": "role",
          "type": "uint8"
        },
        {
          "indexed": false,
          "internalType": "bytes32",
          "name": "orgId",
          "type": "bytes32"
        },
        {
          "indexed": false,
          "internalType": "bytes32",
          "name": "jurisdiction",
          "type": "bytes32"
        },
        {
          "indexed": false,
          "internalType": "enum ResourceType",
          "name": "rType",
          "type": "uint8"
        },
        {
          "indexed": false,
          "internalType": "bytes32",
          "name": "caseId",
          "type": "bytes32"
        },
        {
          "indexed": false,
          "internalType": "enum Action",
          "name": "action",
          "type": "uint8"
        },
        {
          "indexed": false,
          "internalType": "uint8",
          "name": "maxSensitivity",
          "type": "uint8"
        },
        {
          "indexed": false,
          "internalType": "uint64",
          "name": "notBefore",
          "type": "uint64"
        },
        {
          "indexed": false,
          "internalType": "uint64",
          "name": "notAfter",
          "type": "uint64"
        },
        {
          "indexed": false,
          "internalType": "bool",
          "name": "allow",
          "type": "bool"
        }
      ],
      "name": "PolicyCreated",
      "type": "event"
    },
    {
      "anonymous": false,
      "inputs": [
        {
          "indexed": true,
          "internalType": "uint256",
          "name": "policyId",
          "type": "uint256"
        },
        {
          "indexed": true,
          "internalType": "address",
          "name": "by",
          "type": "address"
        }
      ],
      "name": "PolicyRevoked",
      "type": "event"
    },
    {
      "inputs": [],
      "name": "admin",
      "outputs": [
        {
          "internalType": "address",
          "name": "",
          "type": "address"
        }
      ],
      "stateMutability": "view",
      "type": "function"
    },
    {
      "inputs": [
        {
          "internalType": "address",
          "name": "subject",
          "type": "address"
        },
        {
          "internalType": "uint256",
          "name": "resourceId",
          "type": "uint256"
        },
        {
          "internalType": "enum Action",
          "name": "action",
          "type": "uint8"
        }
      ],
      "name": "checkAccess",
      "outputs": [
        {
          "internalType": "bool",
          "name": "",
          "type": "bool"
        }
      ],
      "stateMutability": "view",
      "type": "function"
    },
    {
      "inputs": [
        {
          "internalType": "address",
          "name": "subject",
          "type": "address"
        },
        {
          "internalType": "uint256",
          "name": "resourceId",
          "type": "uint256"
        },
        {
          "internalType": "enum Action",
          "name": "action",
          "type": "uint8"
        }
      ],
      "name": "checkAccessAndEmit",
      "outputs": [
        {
          "internalType": "bool",
          "name": "",
          "type": "bool"
        }
      ],
      "stateMutability": "nonpayable",
      "type": "function"
    },
    {
      "inputs": [
        {
          "internalType": "enum Role",
          "name": "role",
          "type": "uint8"
        },
        {
          "internalType": "bytes32",
          "name": "orgId",
          "type": "bytes32"
        },
        {
          "internalType": "bytes32",
          "name": "jurisdiction",
          "type": "bytes32"
        },
        {
          "internalType": "enum ResourceType",
          "name": "rType",
          "type": "uint8"
        },
        {
          "internalType": "bytes32",
          "name": "caseId",
          "type": "bytes32"
        },
        {
          "internalType": "enum Action",
          "name": "action",
          "type": "uint8"
        },
        {
          "internalType": "uint8",
          "name": "maxSensitivity",
          "type": "uint8"
        },
        {
          "internalType": "uint64",
          "name": "notBefore",
          "type": "uint64"
        },
        {
          "internalType": "uint64",
          "name": "notAfter",
          "type": "uint64"
        },
        {
          "internalType": "bool",
          "name": "allow",
          "type": "bool"
        }
      ],
      "name": "createPolicy",
      "outputs": [
        {
          "internalType": "uint256",
          "name": "policyId",
          "type": "uint256"
        }
      ],
      "stateMutability": "nonpayable",
      "type": "function"
    },
    {
      "inputs": [],
      "name": "evidenceRegistry",
      "outputs": [
        {
          "internalType": "contract EvidenceRegistry",
          "name": "",
          "type": "address"
        }
      ],
      "stateMutability": "view",
      "type": "function"
    },
    {
      "inputs": [
        {
          "internalType": "uint256",
          "name": "policyId",
          "type": "uint256"
        }
      ],
      "name": "getPolicy",
      "outputs": [
        {
          "components": [
            {
              "internalType": "uint256",
              "name": "id",
              "type": "uint256"
            },
            {
              "internalType": "enum Role",
              "name": "role",
              "type": "uint8"
            },
            {
              "internalType": "bytes32",
              "name": "orgId",
              "type": "bytes32"
            },
            {
              "internalType": "bytes32",
              "name": "jurisdiction",
              "type": "bytes32"
            },
            {
              "internalType": "enum ResourceType",
              "name": "rType",
              "type": "uint8"
            },
            {
              "internalType": "bytes32",
              "name": "caseId",
              "type": "bytes32"
            },
            {
              "internalType": "enum Action",
              "name": "action",
              "type": "uint8"
            },
            {
              "internalType": "uint8",
              "name": "maxSensitivity",
              "type": "uint8"
            },
            {
              "internalType": "uint64",
              "name": "notBefore",
              "type": "uint64"
            },
            {
              "internalType": "uint64",
              "name": "notAfter",
              "type": "uint64"
            },
            {
              "internalType": "bool",
              "name": "allow",
              "type": "bool"
            },
            {
              "internalType": "bool",
              "name": "active",
              "type": "bool"
            }
          ],
          "internalType": "struct PolicyRule",
          "name": "",
          "type": "tuple"
        }
      ],
      "stateMutability": "view",
      "type": "function"
    },
    {
      "inputs": [],
      "name": "nextPolicyId",
      "outputs": [
        {
          "internalType": "uint256",
          "name": "",
          "type": "uint256"
        }
      ],
      "stateMutability": "view",
      "type": "function"
    },
    {
      "inputs": [
        {
          "internalType": "uint256",
          "name": "policyId",
          "type": "uint256"
        }
      ],
      "name": "revokePolicy",
      "outputs": [],
      "stateMutability": "nonpayable",
      "type": "function"
    },
    {
      "inputs": [
        {
          "internalType": "address",
          "name": "newAdmin",
          "type": "address"
        }
      ],
      "name": "setAdmin",
      "outputs": [],
      "stateMutability": "nonpayable",
      "type": "function"
    },
    {
      "inputs": [],
      "name": "subjectRegistry",
      "outputs": [
        {
          "internalType": "contract SubjectAttributeRegistry",
          "name": "",
          "type": "address"
        }
      ],
      "stateMutability": "view",
      "type": "function"
    }
  ],
  "bytecode": "0x60806040526001600355348015610014575f5ffd5b506040516113343803806113348339810160408190526100339161016e565b6001600160a01b03821661008e5760405162461bcd60e51b815260206004820152601860248201527f506f6c6963794d67723a207375626a20726567207a65726f000000000000000060448201526064015b60405180910390fd5b6001600160a01b0381166100e45760405162461bcd60e51b815260206004820152601860248201527f506f6c6963794d67723a206576696420726567207a65726f00000000000000006044820152606401610085565b5f80546001600160a01b0319163390811782556040519091907f7e644d79422f17c01e4894b5f4f588d331ebfa28653d42ae832dc59e38c9798f908290a3600180546001600160a01b039384166001600160a01b0319918216179091556002805492909316911617905561019f565b80516001600160a01b0381168114610169575f5ffd5b919050565b5f5f6040838503121561017f575f5ffd5b61018883610153565b915061019660208401610153565b90509250929050565b611188806101ac5f395ff3fe608060405234801561000f575f5ffd5b506004361061009b575f3560e01c8063af40d5a611610063578063af40d5a61461014c578063cad0b8db1461015f578063e0476b5514610168578063f66b87741461017b578063f851a4401461018e575f5ffd5b80632b07fce31461009f57806340d777ba146100c8578063704b6c02146100e957806395272e6d146100fe578063a918347614610129575b5f5ffd5b6100b26100ad366004610b83565b6101a0565b6040516100bf9190610be2565b60405180910390f35b6100db6100d6366004610d23565b610330565b6040519081526020016100bf565b6100fc6100f7366004610de0565b6105b7565b005b600254610111906001600160a01b031681565b6040516001600160a01b0390911681526020016100bf565b61013c610137366004610dfb565b610686565b60405190151581526020016100bf565b61013c61015a366004610dfb565b610a07565b6100db60035481565b6100fc610176366004610b83565b610a62565b600154610111906001600160a01b031681565b5f54610111906001600160a01b031681565b60408051610180810182525f80825260208201819052918101829052606081018290526080810182905260a0810182905260c0810182905260e081018290526101008101829052610120810182905261014081018290526101608101919091525f8281526004602090815260409182902082516101808101909352805483526001810154909183019060ff16600981111561023d5761023d610b9a565b600981111561024e5761024e610b9a565b81526002820154602082015260038201546040820152600482015460609091019060ff16600a81111561028357610283610b9a565b600a81111561029457610294610b9a565b81526005828101546020830152600683015460409092019160ff16908111156102bf576102bf610b9a565b60058111156102d0576102d0610b9a565b81526006919091015460ff6101008204811660208401526001600160401b0362010000830481166040850152600160501b8304166060840152600160901b8204811615156080840152600160981b90910416151560a09091015292915050565b5f80546001600160a01b031633146103635760405162461bcd60e51b815260040161035a90610e36565b60405180910390fd5b5f8b600981111561037657610376610b9a565b036103ba5760405162461bcd60e51b8152602060048201526014602482015273506f6c6963794d67723a20726f6c653d4e4f4e4560601b604482015260640161035a565b6001600160401b0383161561042a57836001600160401b0316836001600160401b03161161042a5760405162461bcd60e51b815260206004820152601e60248201527f506f6c6963794d67723a2074696d652077696e646f7720696e76616c69640000604482015260640161035a565b60038054905f61043983610e65565b909155505f8181526004602052604090208181556001808201805493945091928e929160ff199091169083600981111561047557610475610b9a565b0217905550600281018b9055600381018a90556004810180548a919060ff1916600183600a8111156104a9576104a9610b9a565b02179055506005808201899055600682018054899260ff199091169060019084908111156104d9576104d9610b9a565b0217905550600681018054600160981b69ffffffffffffffffff001990911661010060ff8a160269ffffffffffffffff0000191617620100006001600160401b03898116919091029190911768ffffffffffffffffff60501b1916600160501b9188169190910260ff60901b191617600160901b861515021760ff60981b191617905560405182907faf538caa9dafce08529c9d47171cfece5d8089aa1337a1a6682d04e0704b660f906105a0908f908f908f908f908f908f908f908f908f908f90610e89565b60405180910390a2509a9950505050505050505050565b5f546001600160a01b031633146105e05760405162461bcd60e51b815260040161035a90610e36565b6001600160a01b03811661062d5760405162461bcd60e51b81526020600482015260146024820152732837b634b1bca6b3b91d103d32b9379030b2323960611b604482015260640161035a565b5f80546040516001600160a01b03808516939216917f7e644d79422f17c01e4894b5f4f588d331ebfa28653d42ae832dc59e38c9798f91a35f80546001600160a01b0319166001600160a01b0392909216919091179055565b600254604051631e8fca2d60e01b8152600481018490525f9182916001600160a01b0390911690631e8fca2d906024015f60405180830381865afa1580156106d0573d5f5f3e3d5ffd5b505050506040513d5f823e601f3d908101601f191682016040526106f79190810190610ff6565b90508060e0015161070b575f915050610a00565b60015460405163d9943db960e01b81526001600160a01b0387811660048301525f92169063d9943db990602401608060405180830381865afa158015610753573d5f5f3e3d5ffd5b505050506040513d601f19601f8201168201806040525081019061077791906110c3565b90508060600151158061079b57505f8151600981111561079957610799610b9a565b145b156107aa575f92505050610a00565b60015b6003548110156109f9575f8181526004602052604090206006810154600160981b900460ff1615806107eb57506006810154600160901b900460ff16155b156107f657506109f1565b8251600981111561080957610809610b9a565b600182015460ff16600981111561082257610822610b9a565b1461082d57506109f1565b60028101541580159061084857508260200151816002015414155b1561085357506109f1565b60038101541580159061086e57508260400151816003015414155b1561087957506109f1565b5f600482015460ff16600a81111561089357610893610b9a565b141580156108ce57508360800151600a8111156108b2576108b2610b9a565b600482015460ff16600a8111156108cb576108cb610b9a565b14155b156108d957506109f1565b6005810154158015906108f457508360600151816005015414155b156108ff57506109f1565b85600581111561091157610911610b9a565b600682015460ff16600581111561092a5761092a610b9a565b1461093557506109f1565b600681015460a085015160ff61010090920482169116111561095757506109f1565b600681015442906201000090046001600160401b031615801590610991575060068201546001600160401b03620100009091048116908216105b1561099d5750506109f1565b6006820154600160501b90046001600160401b0316158015906109d7575060068201546001600160401b03600160501b9091048116908216115b156109e35750506109f1565b600195505050505050610a00565b6001016107ad565b505f925050505b9392505050565b5f5f610a14858585610686565b905083856001600160a01b03167f351b53f42316806945a165ebfcd17c52a84d31ad4c4950c96961af80d5e2e5978584604051610a52929190611135565b60405180910390a3949350505050565b5f546001600160a01b03163314610a8b5760405162461bcd60e51b815260040161035a90610e36565b5f8181526004602052604081208054909103610ae95760405162461bcd60e51b815260206004820152601b60248201527f506f6c6963794d67723a20706f6c696379206e6f7420666f756e640000000000604482015260640161035a565b6006810154600160981b900460ff16610b445760405162461bcd60e51b815260206004820152601b60248201527f506f6c6963794d67723a20616c726561647920696e6163746976650000000000604482015260640161035a565b60068101805460ff60981b19169055604051339083907f082737bffe5d38ca614674c82101b0d8c726089ed00acbdaa2787abe3932ebfc905f90a35050565b5f60208284031215610b93575f5ffd5b5035919050565b634e487b7160e01b5f52602160045260245ffd5b600a8110610bbe57610bbe610b9a565b9052565b600b8110610bbe57610bbe610b9a565b60068110610bbe57610bbe610b9a565b81518152602080830151610180830191610bfe90840182610bae565b5060408301516040830152606083015160608301526080830151610c256080840182610bc2565b5060a083015160a083015260c0830151610c4260c0840182610bd2565b5060e0830151610c5760e084018260ff169052565b50610100830151610c746101008401826001600160401b03169052565b50610120830151610c916101208401826001600160401b03169052565b50610140830151610ca761014084018215159052565b50610160830151610cbd61016084018215159052565b5092915050565b600a8110610cd0575f5ffd5b50565b600b8110610cd0575f5ffd5b803560068110610ced575f5ffd5b919050565b60ff81168114610cd0575f5ffd5b80356001600160401b0381168114610ced575f5ffd5b8015158114610cd0575f5ffd5b5f5f5f5f5f5f5f5f5f5f6101408b8d031215610d3d575f5ffd5b8a35610d4881610cc4565b995060208b0135985060408b0135975060608b0135610d6681610cd3565b965060808b01359550610d7b60a08c01610cdf565b945060c08b0135610d8b81610cf2565b9350610d9960e08c01610d00565b9250610da86101008c01610d00565b91506101208b0135610db981610d16565b809150509295989b9194979a5092959850565b6001600160a01b0381168114610cd0575f5ffd5b5f60208284031215610df0575f5ffd5b8135610a0081610dcc565b5f5f5f60608486031215610e0d575f5ffd5b8335610e1881610dcc565b925060208401359150610e2d60408501610cdf565b90509250925092565b6020808252601590820152742837b634b1bca6b3b91d1037b7363c9030b236b4b760591b604082015260600190565b5f60018201610e8257634e487b7160e01b5f52601160045260245ffd5b5060010190565b6101408101610e98828d610bae565b8a6020830152896040830152610eb1606083018a610bc2565b876080830152610ec460a0830188610bd2565b60ff861660c08301526001600160401b03851660e08301526001600160401b0384166101008301528215156101208301529b9a5050505050505050505050565b634e487b7160e01b5f52604160045260245ffd5b60405161010081016001600160401b0381118282101715610f3b57610f3b610f04565b60405290565b5f82601f830112610f50575f5ffd5b81516001600160401b03811115610f6957610f69610f04565b604051601f8201601f19908116603f011681016001600160401b0381118282101715610f9757610f97610f04565b604052818152838201602001851015610fae575f5ffd5b8160208501602083015e5f918101602001919091529392505050565b8051610ced81610cd3565b8051610ced81610cf2565b8051610ced81610dcc565b8051610ced81610d16565b5f60208284031215611006575f5ffd5b81516001600160401b0381111561101b575f5ffd5b8201610100818503121561102d575f5ffd5b611035610f18565b815181526020808301519082015260408201516001600160401b0381111561105b575f5ffd5b61106786828501610f41565b6040830152506060828101519082015261108360808301610fca565b608082015261109460a08301610fd5565b60a08201526110a560c08301610fe0565b60c08201526110b660e08301610feb565b60e0820152949350505050565b5f60808284031280156110d4575f5ffd5b50604051608081016001600160401b03811182821017156110f7576110f7610f04565b604052825161110581610cc4565b81526020838101519082015260408084015190820152606083015161112981610d16565b60608201529392505050565b604081016111438285610bd2565b8215156020830152939250505056fea264697066735822122015e4fc5a1d26337e2ac284936d2a5d41b48d6249b05196b8da4888706688fb5164736f6c634300081c0033",
  "linkReferences": {},
  "deployedLinkReferences": {},
  "immutableReferences": {},
  "inputSourceName": "project/contracts/AccessPolicyManager.sol",
  "buildInfoId": "solc-0_8_28-ad93e5936e91b4913b10e3e9587422cbe689c714"
}