{
  "_format": "hh3-artifact-1",
  "contractName": "SubjectAttributeRegistry",
  "sourceName": "contracts/SubjectAttributeRegistry.sol",
  "abi": [
    {
      "inputs": [],
      "stateMutability": "nonpayable",
      "type": "constructor"
    },
    {
      "anonymous": false,
      "inputs": [
        {
          "indexed": true,
          "internalType": "address",
          "name": "oldAdmin",
          "type": "address"
        },
        {
          "indexed": true,
          "internalType": "address",
          "name": "newAdmin",
          "type": "address"
        }
      ],
      "name": "AdminChanged",
      "type": "event"
    },
    {
      "anonymous": false,
      "inputs": [
        {
          "indexed": true,
          "internalType": "address",
          "name": "subject",
          "type": "address"
        },
        {
          "indexed": false,
          "internalType": "enum Role",
          "name": "role",
          "type": "uint8"
        },
        {
          "indexed": false,
          "internalType": "bytes32",
          "name": "orgId",
          "type": "bytes32"
        },
        {
          "indexed": false,
          "internalType": "bytes32",
          "name": "jurisdiction",
          "type": "bytes32"
        },
        {
          "indexed": false,
          "internalType": "bool",
          "name": "isActive",
          "type": "bool"
        }
      ],
      "name": "SubjectAttributesSet",
      "type": "event"
    },
    {
      "inputs": [],
      "name": "admin",
      "outputs": [
        {
          "internalType": "address",
          "name": "",
          "type": "address"
        }
      ],
      "stateMutability": "view",
      "type": "function"
    },
    {
      "inputs": [
        {
          "internalType": "address",
          "name": "subject",
          "type": "address"
        }
      ],
      "name": "getSubjectAttrs",
      "outputs": [
        {
          "components": [
            {
              "internalType": "enum Role",
              "name": "role",
              "type": "uint8"
            },
            {
              "internalType": "bytes32",
              "name": "orgId",
              "type": "bytes32"
            },
            {
              "internalType": "bytes32",
              "name": "jurisdiction",
              "type": "bytes32"
            },
            {
              "internalType": "bool",
              "name": "isActive",
              "type": "bool"
            }
          ],
          "internalType": "struct SubjectAttrs",
          "name": "",
          "type": "tuple"
        }
      ],
      "stateMutability": "view",
      "type": "function"
    },
    {
      "inputs": [
        {
          "internalType": "address",
          "name": "newAdmin",
          "type": "address"
        }
      ],
      "name": "setAdmin",
      "outputs": [],
      "stateMutability": "nonpayable",
      "type": "function"
    },
    {
      "inputs": [
        {
          "internalType": "address",
          "name": "subject",
          "type": "address"
        },
        {
          "internalType": "enum Role",
          "name": "role",
          "type": "uint8"
        },
        {
          "internalType": "bytes32",
          "name": "orgId",
          "type": "bytes32"
        },
        {
          "internalType": "bytes32",
          "name": "jurisdiction",
          "type": "bytes32"
        },
        {
          "internalType": "bool",
          "name": "isActive",
          "type": "bool"
        }
      ],
      "name": "setSubjectAttributes",
      "outputs": [],
      "stateMutability": "nonpayable",
      "type": "function"
    }
  ],
  "bytecode": "0x6080604052348015600e575f5ffd5b505f80546001600160a01b0319163390811782556040519091907f7e644d79422f17c01e4894b5f4f588d331ebfa28653d42ae832dc59e38c9798f908290a361051f8061005a5f395ff3fe608060405234801561000f575f5ffd5b506004361061004a575f3560e01c80634d414a501461004e578063704b6c0214610063578063d9943db914610076578063f851a4401461009f575b5f5ffd5b61006161005c3660046103d2565b6100c9565b005b610061610071366004610432565b610221565b610089610084366004610432565b61031c565b6040516100969190610486565b60405180910390f35b5f546100b1906001600160a01b031681565b6040516001600160a01b039091168152602001610096565b5f546001600160a01b031633146101215760405162461bcd60e51b815260206004820152601760248201527629bab13532b1ba20ba3a391d1037b7363c9030b236b4b760491b60448201526064015b60405180910390fd5b604051806080016040528085600981111561013e5761013e610452565b815260200184815260200183815260200182151581525060015f876001600160a01b03166001600160a01b031681526020019081526020015f205f820151815f015f6101000a81548160ff0219169083600981111561019f5761019f610452565b02179055506020820151600182015560408083015160028301556060909201516003909101805460ff1916911515919091179055516001600160a01b038616907f41955f7b3525cdeb3fccf37d653eb9f2be208ff80a0dc08f1bc3fe4c22c38a50906102129087908790879087906104be565b60405180910390a25050505050565b5f546001600160a01b031633146102745760405162461bcd60e51b815260206004820152601760248201527629bab13532b1ba20ba3a391d1037b7363c9030b236b4b760491b6044820152606401610118565b6001600160a01b0381166102c35760405162461bcd60e51b815260206004820152601660248201527529bab13532b1ba20ba3a391d103d32b9379030b2323960511b6044820152606401610118565b5f80546040516001600160a01b03808516939216917f7e644d79422f17c01e4894b5f4f588d331ebfa28653d42ae832dc59e38c9798f91a35f80546001600160a01b0319166001600160a01b0392909216919091179055565b604080516080810182525f8082526020820181905291810182905260608101919091526001600160a01b0382165f90815260016020526040908190208151608081019092528054829060ff16600981111561037957610379610452565b600981111561038a5761038a610452565b8152600182015460208201526002820154604082015260039091015460ff16151560609091015292915050565b80356001600160a01b03811681146103cd575f5ffd5b919050565b5f5f5f5f5f60a086880312156103e6575f5ffd5b6103ef866103b7565b94506020860135600a8110610402575f5ffd5b9350604086013592506060860135915060808601358015158114610424575f5ffd5b809150509295509295909350565b5f60208284031215610442575f5ffd5b61044b826103b7565b9392505050565b634e487b7160e01b5f52602160045260245ffd5b600a811061048257634e487b7160e01b5f52602160045260245ffd5b9052565b5f608082019050610498828451610466565b602083015160208301526040830151604083015260608301511515606083015292915050565b608081016104cc8287610466565b84602083015283604083015282151560608301529594505050505056fea264697066735822122053fe0f8dd88a5201c3303654afb5ba5c7334cb47f5b7a06e32c46651836a51b364736f6c634300081c0033",
  "linkReferences": {},
  "deployedLinkReferences": {},
  "immutableReferences": {},
  "inputSourceName": "project/contracts/SubjectAttributeRegistry.sol",
  "buildInfoId": "solc-0_8_28-caf1d51c8354e96d6c089868c9787cebdbb90fdf"
}