{
  "_format": "hh3-artifact-1",
  "contractName": "EvidenceRegistry",
  "sourceName": "contracts/EvidenceRegistry.sol",
  "abi": [
    {
      "inputs": [],
      "stateMutability": "nonpayable",
      "type": "constructor"
    },
    {
      "anonymous": false,
      "inputs": [
        {
          "indexed": true,
          "internalType": "address",
          "name": "oldAdmin",
          "type": "address"
        },
        {
          "indexed": true,
          "internalType": "address",
          "name": "newAdmin",
          "type": "address"
        }
      ],
      "name": "AdminChanged",
      "type": "event"
    },
    {
      "anonymous": false,
      "inputs": [
        {
          "indexed": true,
          "internalType": "uint256",
          "name": "resourceId",
          "type": "uint256"
        },
        {
          "indexed": true,
          "internalType": "bytes32",
          "name": "caseId",
          "type": "bytes32"
        },
        {
          "indexed": false,
          "internalType": "enum ResourceType",
          "name": "rType",
          "type": "uint8"
        },
        {
          "indexed": false,
          "internalType": "uint8",
          "name": "sensitivity",
          "type": "uint8"
        },
        {
          "indexed": true,
          "internalType": "address",
          "name": "owner",
          "type": "address"
        },
        {
          "indexed": false,
          "internalType": "bytes32",
          "name": "contentHash",
          "type": "bytes32"
        },
        {
          "indexed": false,
          "internalType": "string",
          "name": "uri",
          "type": "string"
        }
      ],
      "name": "ResourceRegistered",
      "type": "event"
    },
    {
      "inputs": [],
      "name": "admin",
      "outputs": [
        {
          "internalType": "address",
          "name": "",
          "type": "address"
        }
      ],
      "stateMutability": "view",
      "type": "function"
    },
    {
      "inputs": [
        {
          "internalType": "uint256",
          "name": "resourceId",
          "type": "uint256"
        }
      ],
      "name": "getResource",
      "outputs": [
        {
          "components": [
            {
              "internalType": "uint256",
              "name": "id",
              "type": "uint256"
            },
            {
              "internalType": "bytes32",
              "name": "contentHash",
              "type": "bytes32"
            },
            {
              "internalType": "string",
              "name": "uri",
              "type": "string"
            },
            {
              "internalType": "bytes32",
              "name": "caseId",
              "type": "bytes32"
            },
            {
              "internalType": "enum ResourceType",
              "name": "rType",
              "type": "uint8"
            },
            {
              "internalType": "uint8",
              "name": "sensitivity",
              "type": "uint8"
            },
            {
              "internalType": "address",
              "name": "owner",
              "type": "address"
            },
            {
              "internalType": "bool",
              "name": "exists",
              "type": "bool"
            }
          ],
          "internalType": "struct Resource",
          "name": "",
          "type": "tuple"
        }
      ],
      "stateMutability": "view",
      "type": "function"
    },
    {
      "inputs": [
        {
          "internalType": "bytes32",
          "name": "caseId",
          "type": "bytes32"
        }
      ],
      "name": "getResourcesByCase",
      "outputs": [
        {
          "internalType": "uint256[]",
          "name": "",
          "type": "uint256[]"
        }
      ],
      "stateMutability": "view",
      "type": "function"
    },
    {
      "inputs": [],
      "name": "nextResourceId",
      "outputs": [
        {
          "internalType": "uint256",
          "name": "",
          "type": "uint256"
        }
      ],
      "stateMutability": "view",
      "type": "function"
    },
    {
      "inputs": [
        {
          "internalType": "bytes32",
          "name": "contentHash",
          "type": "bytes32"
        },
        {
          "internalType": "string",
          "name": "uri",
          "type": "string"
        },
        {
          "internalType": "bytes32",
          "name": "caseId",
          "type": "bytes32"
        },
        {
          "internalType": "enum ResourceType",
          "name": "rType",
          "type": "uint8"
        },
        {
          "internalType": "uint8",
          "name": "sensitivity",
          "type": "uint8"
        }
      ],
      "name": "registerResource",
      "outputs": [
        {
          "internalType": "uint256",
          "name": "resourceId",
          "type": "uint256"
        }
      ],
      "stateMutability": "nonpayable",
      "type": "function"
    },
    {
      "inputs": [
        {
          "internalType": "address",
          "name": "newAdmin",
          "type": "address"
        }
      ],
      "name": "setAdmin",
      "outputs": [],
      "stateMutability": "nonpayable",
      "type": "function"
    }
  ],
  "bytecode": "0x6080604052600180553480156012575f5ffd5b505f80546001600160a01b0319163390811782556040519091907f7e644d79422f17c01e4894b5f4f588d331ebfa28653d42ae832dc59e38c9798f908290a36109e98061005e5f395ff3fe608060405234801561000f575f5ffd5b5060043610610060575f3560e01c80631e8fca2d1461006457806344f40fc91461008d578063704b6c02146100ae578063de82d8f4146100c3578063efad29bf146100e3578063f851a440146100ec575b5f5ffd5b6100776100723660046105d0565b610116565b604051610084919061061b565b60405180910390f35b6100a061009b3660046106e1565b610259565b604051908152602001610084565b6100c16100bc366004610781565b610425565b005b6100d66100d13660046105d0565b610520565b60405161008491906107ae565b6100a060015481565b5f546100fe906001600160a01b031681565b6040516001600160a01b039091168152602001610084565b61011e61057f565b60025f8381526020019081526020015f20604051806101000160405290815f82015481526020016001820154815260200160028201805461015e906107f0565b80601f016020809104026020016040519081016040528092919081815260200182805461018a906107f0565b80156101d55780601f106101ac576101008083540402835291602001916101d5565b820191905f5260205f20905b8154815290600101906020018083116101b857829003601f168201915b505050918352505060038201546020820152600482015460409091019060ff16600a811115610206576102066105e7565b600a811115610217576102176105e7565b81526004919091015460ff6101008204811660208401526001600160a01b03620100008304166040840152600160b01b90910416151560609091015292915050565b5f80546001600160a01b031633146102b25760405162461bcd60e51b815260206004820152601760248201527622bb34b232b731b2a932b39d1037b7363c9030b236b4b760491b60448201526064015b60405180910390fd5b866102ff5760405162461bcd60e51b815260206004820152601760248201527f45766964656e63655265673a20656d707479206861736800000000000000000060448201526064016102a9565b60018054905f61030e83610828565b909155505f818152600260208190526040909120828155600181018a9055919250810161033c8789836108ac565b506003810185905560048101805485919060ff1916600183600a811115610365576103656105e7565b0217905550600481018054600160b01b610100600160b01b031990911661010060ff87160262010000600160b01b031916173362010000021760ff60b01b191617905584156103cf575f858152600360209081526040822080546001810182559083529120018290555b336001600160a01b031685837f6b365910fc5da2f304f13fe721a537cc765d84e96c90e988c9fe5aa05fc2475887878d8d8d604051610412959493929190610966565b60405180910390a4509695505050505050565b5f546001600160a01b031633146104785760405162461bcd60e51b815260206004820152601760248201527622bb34b232b731b2a932b39d1037b7363c9030b236b4b760491b60448201526064016102a9565b6001600160a01b0381166104c75760405162461bcd60e51b815260206004820152601660248201527522bb34b232b731b2a932b39d103d32b9379030b2323960511b60448201526064016102a9565b5f80546040516001600160a01b03808516939216917f7e644d79422f17c01e4894b5f4f588d331ebfa28653d42ae832dc59e38c9798f91a35f80546001600160a01b0319166001600160a01b0392909216919091179055565b5f8181526003602090815260409182902080548351818402810184019094528084526060939283018282801561057357602002820191905f5260205f20905b81548152602001906001019080831161055f575b50505050509050919050565b6040518061010001604052805f81526020015f8152602001606081526020015f81526020015f600a8111156105b6576105b66105e7565b81525f602082018190526040820181905260609091015290565b5f602082840312156105e0575f5ffd5b5035919050565b634e487b7160e01b5f52602160045260245ffd5b600b811061061757634e487b7160e01b5f52602160045260245ffd5b9052565b6020815281516020820152602082015160408201525f60408301516101006060840152805180610120850152806020830161014086015e5f6101408286010152606085015160808501526080850151915061067960a08501836105fb565b60a085015160ff1660c0858101919091528501516001600160a01b031660e0808601919091529094015115156101008401525050601f909101601f1916016101400190565b8035600b81106106cc575f5ffd5b919050565b803560ff811681146106cc575f5ffd5b5f5f5f5f5f5f60a087890312156106f6575f5ffd5b86359550602087013567ffffffffffffffff811115610713575f5ffd5b8701601f81018913610723575f5ffd5b803567ffffffffffffffff811115610739575f5ffd5b89602082840101111561074a575f5ffd5b6020919091019550935060408701359250610767606088016106be565b9150610775608088016106d1565b90509295509295509295565b5f60208284031215610791575f5ffd5b81356001600160a01b03811681146107a7575f5ffd5b9392505050565b602080825282518282018190525f918401906040840190835b818110156107e55783518352602093840193909201916001016107c7565b509095945050505050565b600181811c9082168061080457607f821691505b60208210810361082257634e487b7160e01b5f52602260045260245ffd5b50919050565b5f6001820161084557634e487b7160e01b5f52601160045260245ffd5b5060010190565b634e487b7160e01b5f52604160045260245ffd5b601f8211156108a757805f5260205f20601f840160051c810160208510156108855750805b601f840160051c820191505b818110156108a4575f8155600101610891565b50505b505050565b67ffffffffffffffff8311156108c4576108c461084c565b6108d8836108d283546107f0565b83610860565b5f601f841160018114610909575f85156108f25750838201355b5f19600387901b1c1916600186901b1783556108a4565b5f83815260208120601f198716915b828110156109385786850135825560209485019460019092019101610918565b5086821015610954575f1960f88860031b161c19848701351681555b505060018560011b0183555050505050565b61097081876105fb565b60ff8516602082015283604082015260806060820152816080820152818360a08301375f81830160a090810191909152601f909201601f1916010194935050505056fea264697066735822122058ae3f63b3f2ca1f8404ddb2547d76a5fbdaedd370b492e54b3cdc6fa60df5e764736f6c634300081c0033",
  "linkReferences": {},
  "deployedLinkReferences": {},
  "immutableReferences": {},
  "inputSourceName": "project/contracts/EvidenceRegistry.sol",
  "buildInfoId": "solc-0_8_28-49a06ce44ed205143430b5d7edd985520c59e17f"
}